{
  "transactions": [
    {
      "hash": "0x1de957639f3145a6af3a31e1e28d95306124079b985393512a17a783a64118f8",
      "transactionType": "CALL",
      "contractName": null,
      "contractAddress": "0x0932e44afa92137355c156513588d0712c320ca2",
      "function": "setBuySource(string)",
      "arguments": [
        "chainlink"
      ],
      "transaction": {
        "from": "0xa94b77db5b96d82a26243b1bd9510a3c2b6ce535",
        "to": "0x0932e44afa92137355c156513588d0712c320ca2",
        "gas": "0xd8f23",
        "value": "0x0",
        "input": "0x0ae69f3400000000000000000000000000000000000000000000000000000000000000200000000000000000000000000000000000000000000000000000000000000009636861696e6c696e6b0000000000000000000000000000000000000000000000",
        "nonce": "0x67",
        "chainId": "0x66eee"
      },
      "additionalContracts": [],
      "isFixedGasLimit": false
    }
  ],
  "receipts": [
    {
      "status": "0x1",
      "cumulativeGasUsed": "0x97455",
      "logs": [],
      "logsBloom": "0x00000000000000000000000000000000000000000000000000000000000000000000000000000000000000000000000000000000000000000000000000000000000000000000000000000000000000000000000000000000000000000000000000000000000000000000000000000000000000000000000000000000000000000000000000000000000000000000000000000000000000000000000000000000000000000000000000000000000000000000000000000000000000000000000000000000000000000000000000000000000000000000000000000000000000000000000000000000000000000000000000000000000000000000000000000000",
      "type": "0x2",
      "transactionHash": "0x1de957639f3145a6af3a31e1e28d95306124079b985393512a17a783a64118f8",
      "transactionIndex": "0x2",
      "blockHash": "0x3c0baf918331a9629a6be160c64c70858ea5ca56f2df7a5584647812c83501fa",
      "blockNumber": "0xa63f95d",
      "gasUsed": "0x84c30",
      "effectiveGasPrice": "0x5f5e100",
      "from": "0xa94b77db5b96d82a26243b1bd9510a3c2b6ce535",
      "to": "0x0932e44afa92137355c156513588d0712c320ca2",
      "contractAddress": null,
      "gasUsedForL1": "0x0",
      "l1BlockNumber": "0x85fabb",
      "timeboosted": false
    }
  ],
  "libraries": [],
  "pending": [],
  "returns": {},
  "timestamp": 1752719582,
  "chain": 421614,
  "commit": "c0458d4"
}